{
  "contractName": "Distributor",
  "abi": [
    {
      "constant": false,
      "inputs": [
        {
          "name": "coinContractAddress",
          "type": "address"
        },
        {
          "name": "from",
          "type": "address"
        },
        {
          "name": "to",
          "type": "address"
        },
        {
          "name": "value",
          "type": "uint256"
        }
      ],
      "name": "transferFrom",
      "outputs": [
        {
          "name": "",
          "type": "bool"
        }
      ],
      "payable": false,
      "stateMutability": "nonpayable",
      "type": "function"
    },
    {
      "constant": false,
      "inputs": [
        {
          "name": "coinContractAddress",
          "type": "address"
        },
        {
          "name": "sender",
          "type": "address"
        },
        {
          "name": "spender",
          "type": "address"
        },
        {
          "name": "value",
          "type": "uint256"
        }
      ],
      "name": "approve",
      "outputs": [
        {
          "name": "",
          "type": "bool"
        }
      ],
      "payable": false,
      "stateMutability": "nonpayable",
      "type": "function"
    },
    {
      "constant": true,
      "inputs": [
        {
          "name": "coinContractAddress",
          "type": "address"
        },
        {
          "name": "owner",
          "type": "address"
        },
        {
          "name": "spender",
          "type": "address"
        }
      ],
      "name": "allowance",
      "outputs": [
        {
          "name": "res",
          "type": "uint256"
        }
      ],
      "payable": false,
      "stateMutability": "view",
      "type": "function"
    },
    {
      "constant": true,
      "inputs": [
        {
          "name": "coinContractAddress",
          "type": "address"
        }
      ],
      "name": "totalSupply",
      "outputs": [
        {
          "name": "res",
          "type": "uint256"
        }
      ],
      "payable": false,
      "stateMutability": "view",
      "type": "function"
    },
    {
      "constant": false,
      "inputs": [
        {
          "name": "coinContractAddress",
          "type": "address"
        },
        {
          "name": "value",
          "type": "uint256"
        }
      ],
      "name": "emision",
      "outputs": [
        {
          "name": "",
          "type": "bool"
        }
      ],
      "payable": false,
      "stateMutability": "nonpayable",
      "type": "function"
    },
    {
      "constant": false,
      "inputs": [
        {
          "name": "coinContractAddress",
          "type": "address"
        },
        {
          "name": "sender",
          "type": "address"
        },
        {
          "name": "to",
          "type": "address"
        },
        {
          "name": "value",
          "type": "uint256"
        }
      ],
      "name": "transfer",
      "outputs": [
        {
          "name": "",
          "type": "bool"
        }
      ],
      "payable": false,
      "stateMutability": "nonpayable",
      "type": "function"
    },
    {
      "constant": true,
      "inputs": [
        {
          "name": "coinContractAddress",
          "type": "address"
        },
        {
          "name": "owner",
          "type": "address"
        }
      ],
      "name": "balanceOf",
      "outputs": [
        {
          "name": "res",
          "type": "uint256"
        }
      ],
      "payable": false,
      "stateMutability": "view",
      "type": "function"
    }
  ],
  "bytecode": "0x6060604052341561000f57600080fd5b610abd8061001e6000396000f300606060405260043610610083576000357c0100000000000000000000000000000000000000000000000000000000900463ffffffff16806315dacbea1461008857806359eba45414610120578063927da105146101b8578063e4dc2aa414610243578063e7b8020c14610290578063f18d03cc146102ea578063f7888aec14610382575b600080fd5b341561009357600080fd5b610106600480803573ffffffffffffffffffffffffffffffffffffffff1690602001909190803573ffffffffffffffffffffffffffffffffffffffff1690602001909190803573ffffffffffffffffffffffffffffffffffffffff169060200190919080359060200190919050506103ee565b604051808215151515815260200191505060405180910390f35b341561012b57600080fd5b61019e600480803573ffffffffffffffffffffffffffffffffffffffff1690602001909190803573ffffffffffffffffffffffffffffffffffffffff1690602001909190803573ffffffffffffffffffffffffffffffffffffffff16906020019091908035906020019091905050610530565b604051808215151515815260200191505060405180910390f35b34156101c357600080fd5b61022d600480803573ffffffffffffffffffffffffffffffffffffffff1690602001909190803573ffffffffffffffffffffffffffffffffffffffff1690602001909190803573ffffffffffffffffffffffffffffffffffffffff1690602001909190505061063e565b6040518082815260200191505060405180910390f35b341561024e57600080fd5b61027a600480803573ffffffffffffffffffffffffffffffffffffffff16906020019091905050610743565b6040518082815260200191505060405180910390f35b341561029b57600080fd5b6102d0600480803573ffffffffffffffffffffffffffffffffffffffff169060200190919080359060200190919050506107db565b604051808215151515815260200191505060405180910390f35b34156102f557600080fd5b610368600480803573ffffffffffffffffffffffffffffffffffffffff1690602001909190803573ffffffffffffffffffffffffffffffffffffffff1690602001909190803573ffffffffffffffffffffffffffffffffffffffff169060200190919080359060200190919050506108b3565b604051808215151515815260200191505060405180910390f35b341561038d57600080fd5b6103d8600480803573ffffffffffffffffffffffffffffffffffffffff1690602001909190803573ffffffffffffffffffffffffffffffffffffffff169060200190919050506109c1565b6040518082815260200191505060405180910390f35b6000808590508073ffffffffffffffffffffffffffffffffffffffff16635fc9309c868686336000604051602001526040518563ffffffff167c0100000000000000000000000000000000000000000000000000000000028152600401808573ffffffffffffffffffffffffffffffffffffffff1673ffffffffffffffffffffffffffffffffffffffff1681526020018473ffffffffffffffffffffffffffffffffffffffff1673ffffffffffffffffffffffffffffffffffffffff1681526020018381526020018273ffffffffffffffffffffffffffffffffffffffff1673ffffffffffffffffffffffffffffffffffffffff168152602001945050505050602060405180830381600087803b151561050757600080fd5b6102c65a03f1151561051857600080fd5b50505060405180519050506001915050949350505050565b6000808590508073ffffffffffffffffffffffffffffffffffffffff1663e1f21c678686866000604051602001526040518463ffffffff167c0100000000000000000000000000000000000000000000000000000000028152600401808473ffffffffffffffffffffffffffffffffffffffff1673ffffffffffffffffffffffffffffffffffffffff1681526020018373ffffffffffffffffffffffffffffffffffffffff1673ffffffffffffffffffffffffffffffffffffffff1681526020018281526020019350505050602060405180830381600087803b151561061557600080fd5b6102c65a03f1151561062657600080fd5b50505060405180519050506001915050949350505050565b6000808490508073ffffffffffffffffffffffffffffffffffffffff1663dd62ed3e85856000604051602001526040518363ffffffff167c0100000000000000000000000000000000000000000000000000000000028152600401808373ffffffffffffffffffffffffffffffffffffffff1673ffffffffffffffffffffffffffffffffffffffff1681526020018273ffffffffffffffffffffffffffffffffffffffff1673ffffffffffffffffffffffffffffffffffffffff16815260200192505050602060405180830381600087803b151561071b57600080fd5b6102c65a03f1151561072c57600080fd5b505050604051805190509150819150509392505050565b6000808290508073ffffffffffffffffffffffffffffffffffffffff166318160ddd6000604051602001526040518163ffffffff167c0100000000000000000000000000000000000000000000000000000000028152600401602060405180830381600087803b15156107b557600080fd5b6102c65a03f115156107c657600080fd5b50505060405180519050915081915050919050565b6000808390508073ffffffffffffffffffffffffffffffffffffffff1663e7b8020c33856000604051602001526040518363ffffffff167c0100000000000000000000000000000000000000000000000000000000028152600401808373ffffffffffffffffffffffffffffffffffffffff1673ffffffffffffffffffffffffffffffffffffffff16815260200182815260200192505050602060405180830381600087803b151561088c57600080fd5b6102c65a03f1151561089d57600080fd5b5050506040518051905050600191505092915050565b6000808590508073ffffffffffffffffffffffffffffffffffffffff1663beabacc88686866000604051602001526040518463ffffffff167c0100000000000000000000000000000000000000000000000000000000028152600401808473ffffffffffffffffffffffffffffffffffffffff1673ffffffffffffffffffffffffffffffffffffffff1681526020018373ffffffffffffffffffffffffffffffffffffffff1673ffffffffffffffffffffffffffffffffffffffff1681526020018281526020019350505050602060405180830381600087803b151561099857600080fd5b6102c65a03f115156109a957600080fd5b50505060405180519050506001915050949350505050565b6000808390508073ffffffffffffffffffffffffffffffffffffffff166370a08231846000604051602001526040518263ffffffff167c0100000000000000000000000000000000000000000000000000000000028152600401808273ffffffffffffffffffffffffffffffffffffffff1673ffffffffffffffffffffffffffffffffffffffff168152602001915050602060405180830381600087803b1515610a6a57600080fd5b6102c65a03f11515610a7b57600080fd5b50505060405180519050915081915050929150505600a165627a7a7230582037e353dd255f7f910f920a70de511d138b30fbaa63684c9483b70da2f49b79d80029",
  "source": "pragma solidity ^0.4.18;\r\n\r\nimport \"./TokenHolder.sol\";\r\n\r\ncontract Distributor {\r\n\r\n\r\n\tfunction transfer(address coinContractAddress, address sender, address to, uint value) returns (bool) {\r\n\t\tTokenHolder t = TokenHolder(coinContractAddress);\r\n\t\tt.transfer(sender, to, value);\r\n\t\treturn true;\r\n\t}\r\n\r\n\tfunction balanceOf(address coinContractAddress, address owner) constant returns (uint256 res) {\r\n\t\tTokenHolder t = TokenHolder(coinContractAddress);\r\n\t\tres = t.balanceOf(owner);\r\n\t\treturn res;\r\n\t}\r\n\r\n\tfunction totalSupply(address coinContractAddress) constant returns (uint256 res) {\r\n\t\tTokenHolder t = TokenHolder(coinContractAddress);\r\n\t\tres = t.totalSupply();\r\n\t\treturn res;\r\n\t}\r\n\r\n\tfunction transferFrom(address coinContractAddress,address from, address to, uint value)returns (bool) {\r\n\t\tTokenHolder t = TokenHolder(coinContractAddress);\r\n\t\tt.transferFrom(from, to, value, msg.sender);\r\n\t\treturn true;\r\n\t}\r\n\r\n\tfunction approve(address coinContractAddress,address sender, address spender, uint value) returns (bool) {\r\n\t\tTokenHolder t = TokenHolder(coinContractAddress);\r\n\t\tt.approve(sender, spender, value);\r\n\t\treturn true;\r\n\t}\r\n\r\n\tfunction allowance(address coinContractAddress, address owner, address spender) constant returns (uint res) {\r\n\t\tTokenHolder t = TokenHolder(coinContractAddress);\r\n\t\tres = t.allowance(owner,spender);\r\n\t\treturn res;\r\n\t}\r\n\r\n\tfunction emision(address coinContractAddress, uint256 value) returns (bool) {\r\n\t\tTokenHolder t = TokenHolder(coinContractAddress);\r\n\t\tt.emision(msg.sender, value);\r\n\t\treturn true;\r\n\t}\r\n}",
  "sourcePath": "C:\\Users\\Дима\\TokenDistributor\\contracts\\Distributor.sol",
  "compiler": {
    "name": "solc",
    "version": "0.4.18+commit.9cf6e910.Emscripten.clang"
  },
  "schemaVersion": "1.0.1",
  "updatedAt": "2017-12-26T14:07:52.064Z"
}