{
  "contractName": "TokenHolder",
  "abi": [
    {
      "constant": true,
      "inputs": [],
      "name": "name",
      "outputs": [
        {
          "name": "",
          "type": "string"
        }
      ],
      "payable": false,
      "stateMutability": "view",
      "type": "function"
    },
    {
      "constant": true,
      "inputs": [],
      "name": "totalSupply",
      "outputs": [
        {
          "name": "totalSupply",
          "type": "uint256"
        }
      ],
      "payable": false,
      "stateMutability": "view",
      "type": "function"
    },
    {
      "constant": true,
      "inputs": [],
      "name": "decimals",
      "outputs": [
        {
          "name": "",
          "type": "uint8"
        }
      ],
      "payable": false,
      "stateMutability": "view",
      "type": "function"
    },
    {
      "constant": false,
      "inputs": [
        {
          "name": "_from",
          "type": "address"
        },
        {
          "name": "_to",
          "type": "address"
        },
        {
          "name": "_value",
          "type": "uint256"
        },
        {
          "name": "sender",
          "type": "address"
        }
      ],
      "name": "transferFrom",
      "outputs": [
        {
          "name": "success",
          "type": "bool"
        }
      ],
      "payable": false,
      "stateMutability": "nonpayable",
      "type": "function"
    },
    {
      "constant": true,
      "inputs": [
        {
          "name": "_owner",
          "type": "address"
        }
      ],
      "name": "balanceOf",
      "outputs": [
        {
          "name": "balance",
          "type": "uint256"
        }
      ],
      "payable": false,
      "stateMutability": "view",
      "type": "function"
    },
    {
      "constant": true,
      "inputs": [],
      "name": "owner",
      "outputs": [
        {
          "name": "",
          "type": "address"
        }
      ],
      "payable": false,
      "stateMutability": "view",
      "type": "function"
    },
    {
      "constant": true,
      "inputs": [],
      "name": "symbol",
      "outputs": [
        {
          "name": "",
          "type": "string"
        }
      ],
      "payable": false,
      "stateMutability": "view",
      "type": "function"
    },
    {
      "constant": false,
      "inputs": [
        {
          "name": "sender",
          "type": "address"
        },
        {
          "name": "_to",
          "type": "address"
        },
        {
          "name": "_value",
          "type": "uint256"
        }
      ],
      "name": "transfer",
      "outputs": [
        {
          "name": "success",
          "type": "bool"
        }
      ],
      "payable": false,
      "stateMutability": "nonpayable",
      "type": "function"
    },
    {
      "constant": true,
      "inputs": [
        {
          "name": "_owner",
          "type": "address"
        },
        {
          "name": "_spender",
          "type": "address"
        }
      ],
      "name": "allowance",
      "outputs": [
        {
          "name": "remaining",
          "type": "uint256"
        }
      ],
      "payable": false,
      "stateMutability": "view",
      "type": "function"
    },
    {
      "constant": false,
      "inputs": [
        {
          "name": "sender",
          "type": "address"
        },
        {
          "name": "_spender",
          "type": "address"
        },
        {
          "name": "_value",
          "type": "uint256"
        }
      ],
      "name": "approve",
      "outputs": [
        {
          "name": "success",
          "type": "bool"
        }
      ],
      "payable": false,
      "stateMutability": "nonpayable",
      "type": "function"
    },
    {
      "constant": false,
      "inputs": [
        {
          "name": "sender",
          "type": "address"
        },
        {
          "name": "_value",
          "type": "uint256"
        }
      ],
      "name": "emision",
      "outputs": [
        {
          "name": "",
          "type": "bool"
        }
      ],
      "payable": false,
      "stateMutability": "nonpayable",
      "type": "function"
    },
    {
      "inputs": [],
      "payable": false,
      "stateMutability": "nonpayable",
      "type": "constructor"
    },
    {
      "anonymous": false,
      "inputs": [
        {
          "indexed": true,
          "name": "_from",
          "type": "address"
        },
        {
          "indexed": true,
          "name": "_to",
          "type": "address"
        },
        {
          "indexed": false,
          "name": "_value",
          "type": "uint256"
        }
      ],
      "name": "Transfer",
      "type": "event"
    },
    {
      "anonymous": false,
      "inputs": [
        {
          "indexed": true,
          "name": "_owner",
          "type": "address"
        },
        {
          "indexed": true,
          "name": "_spender",
          "type": "address"
        },
        {
          "indexed": false,
          "name": "_value",
          "type": "uint256"
        }
      ],
      "name": "Approval",
      "type": "event"
    }
  ],
  "bytecode": "0x6060604052620f4240600055341561001657600080fd5b33600160006101000a81548173ffffffffffffffffffffffffffffffffffffffff021916908373ffffffffffffffffffffffffffffffffffffffff16021790555060005460026000600160009054906101000a900473ffffffffffffffffffffffffffffffffffffffff1673ffffffffffffffffffffffffffffffffffffffff1673ffffffffffffffffffffffffffffffffffffffff16815260200190815260200160002081905550610d01806100ce6000396000f3006060604052600436106100af576000357c0100000000000000000000000000000000000000000000000000000000900463ffffffff16806306fdde03146100b457806318160ddd14610142578063313ce5671461016b5780635fc9309c1461019a57806370a08231146102325780638da5cb5b1461027f57806395d89b41146102d4578063beabacc814610362578063dd62ed3e146103db578063e1f21c6714610447578063e7b8020c146104c0575b600080fd5b34156100bf57600080fd5b6100c761051a565b6040518080602001828103825283818151815260200191508051906020019080838360005b838110156101075780820151818401526020810190506100ec565b50505050905090810190601f1680156101345780820380516001836020036101000a031916815260200191505b509250505060405180910390f35b341561014d57600080fd5b610155610553565b6040518082815260200191505060405180910390f35b341561017657600080fd5b61017e61055f565b604051808260ff1660ff16815260200191505060405180910390f35b34156101a557600080fd5b610218600480803573ffffffffffffffffffffffffffffffffffffffff1690602001909190803573ffffffffffffffffffffffffffffffffffffffff1690602001909190803590602001909190803573ffffffffffffffffffffffffffffffffffffffff16906020019091905050610564565b604051808215151515815260200191505060405180910390f35b341561023d57600080fd5b610269600480803573ffffffffffffffffffffffffffffffffffffffff169060200190919050506107d7565b6040518082815260200191505060405180910390f35b341561028a57600080fd5b610292610820565b604051808273ffffffffffffffffffffffffffffffffffffffff1673ffffffffffffffffffffffffffffffffffffffff16815260200191505060405180910390f35b34156102df57600080fd5b6102e7610846565b6040518080602001828103825283818151815260200191508051906020019080838360005b8381101561032757808201518184015260208101905061030c565b50505050905090810190601f1680156103545780820380516001836020036101000a031916815260200191505b509250505060405180910390f35b341561036d57600080fd5b6103c1600480803573ffffffffffffffffffffffffffffffffffffffff1690602001909190803573ffffffffffffffffffffffffffffffffffffffff1690602001909190803590602001909190505061087f565b604051808215151515815260200191505060405180910390f35b34156103e657600080fd5b610431600480803573ffffffffffffffffffffffffffffffffffffffff1690602001909190803573ffffffffffffffffffffffffffffffffffffffff16906020019091905050610a75565b6040518082815260200191505060405180910390f35b341561045257600080fd5b6104a6600480803573ffffffffffffffffffffffffffffffffffffffff1690602001909190803573ffffffffffffffffffffffffffffffffffffffff16906020019091908035906020019091905050610afc565b604051808215151515815260200191505060405180910390f35b34156104cb57600080fd5b610500600480803573ffffffffffffffffffffffffffffffffffffffff16906020019091908035906020019091905050610bef565b604051808215151515815260200191505060405180910390f35b6040805190810160405280600f81526020017f44697374696275746520546f6b656e000000000000000000000000000000000081525081565b60008054905080905090565b600081565b600082600260008773ffffffffffffffffffffffffffffffffffffffff1673ffffffffffffffffffffffffffffffffffffffff16815260200190815260200160002054101580156106355750600260008573ffffffffffffffffffffffffffffffffffffffff1673ffffffffffffffffffffffffffffffffffffffff1681526020019081526020016000205483600260008773ffffffffffffffffffffffffffffffffffffffff1673ffffffffffffffffffffffffffffffffffffffff168152602001908152602001600020540110155b80156106bd575082600360008773ffffffffffffffffffffffffffffffffffffffff1673ffffffffffffffffffffffffffffffffffffffff16815260200190815260200160002060008473ffffffffffffffffffffffffffffffffffffffff1673ffffffffffffffffffffffffffffffffffffffff1681526020019081526020016000205410155b156107ca5782600260008773ffffffffffffffffffffffffffffffffffffffff1673ffffffffffffffffffffffffffffffffffffffff1681526020019081526020016000206000828254039250508190555082600260008673ffffffffffffffffffffffffffffffffffffffff1673ffffffffffffffffffffffffffffffffffffffff168152602001908152602001600020600082825401925050819055508373ffffffffffffffffffffffffffffffffffffffff168573ffffffffffffffffffffffffffffffffffffffff167fddf252ad1be2c89b69c2b068fc378daa952ba7f163c4a11628f55a4df523b3ef856040518082815260200191505060405180910390a3600190506107cf565b600090505b949350505050565b6000600260008373ffffffffffffffffffffffffffffffffffffffff1673ffffffffffffffffffffffffffffffffffffffff168152602001908152602001600020549050919050565b600160009054906101000a900473ffffffffffffffffffffffffffffffffffffffff1681565b6040805190810160405280600481526020017f446973540000000000000000000000000000000000000000000000000000000081525081565b600081600260008673ffffffffffffffffffffffffffffffffffffffff1673ffffffffffffffffffffffffffffffffffffffff16815260200190815260200160002054101580156108d05750600082115b801561095c5750600260008473ffffffffffffffffffffffffffffffffffffffff1673ffffffffffffffffffffffffffffffffffffffff1681526020019081526020016000205482600260008673ffffffffffffffffffffffffffffffffffffffff1673ffffffffffffffffffffffffffffffffffffffff168152602001908152602001600020540110155b15610a695781600260008673ffffffffffffffffffffffffffffffffffffffff1673ffffffffffffffffffffffffffffffffffffffff1681526020019081526020016000206000828254039250508190555081600260008573ffffffffffffffffffffffffffffffffffffffff1673ffffffffffffffffffffffffffffffffffffffff168152602001908152602001600020600082825401925050819055508273ffffffffffffffffffffffffffffffffffffffff168473ffffffffffffffffffffffffffffffffffffffff167fddf252ad1be2c89b69c2b068fc378daa952ba7f163c4a11628f55a4df523b3ef846040518082815260200191505060405180910390a360019050610a6e565b600090505b9392505050565b6000600360008473ffffffffffffffffffffffffffffffffffffffff1673ffffffffffffffffffffffffffffffffffffffff16815260200190815260200160002060008373ffffffffffffffffffffffffffffffffffffffff1673ffffffffffffffffffffffffffffffffffffffff16815260200190815260200160002054905092915050565b600081600360008673ffffffffffffffffffffffffffffffffffffffff1673ffffffffffffffffffffffffffffffffffffffff16815260200190815260200160002060008573ffffffffffffffffffffffffffffffffffffffff1673ffffffffffffffffffffffffffffffffffffffff168152602001908152602001600020819055508273ffffffffffffffffffffffffffffffffffffffff168473ffffffffffffffffffffffffffffffffffffffff167f8c5be1e5ebec7d5bd14f71427d1e84f3dd0314c0f7b2291e5b200ac8c7c3b925846040518082815260200191505060405180910390a3600190509392505050565b6000600160009054906101000a900473ffffffffffffffffffffffffffffffffffffffff1673ffffffffffffffffffffffffffffffffffffffff168373ffffffffffffffffffffffffffffffffffffffff16141515610c4d57600080fd5b8160026000600160009054906101000a900473ffffffffffffffffffffffffffffffffffffffff1673ffffffffffffffffffffffffffffffffffffffff1673ffffffffffffffffffffffffffffffffffffffff1681526020019081526020016000206000828254019250508190555081600080828254019250508190555060019050929150505600a165627a7a723058209cfba94aab8e36370f8311e755e3280da64b84c02118990287de9ddaf72f1f5d0029",
  "source": "pragma solidity ^0.4.18;\r\n\r\nimport \"./ERC20Interface.sol\";\r\n\r\ncontract TokenHolder is ERC20Interface {\r\n\tstring public constant name = \"Distibute Token\";\r\n\tstring public constant symbol = \"DisT\";\r\n\tuint8 public constant decimals = 0;\r\n\r\n\tuint256 _totalSupply = 1000000;\r\n\r\n\taddress public owner;\r\n\r\n\tmapping (address => uint256) balances;\r\n\r\n\tmapping (address => mapping (address => uint256)) allowed;\r\n\r\n\tfunction TokenHolder() public {\r\n\t\towner = msg.sender;\r\n\t\tbalances[owner] = _totalSupply;\r\n\t}\r\n\r\n\r\n\tfunction totalSupply() public constant returns (uint256 totalSupply) {\r\n\t\ttotalSupply = _totalSupply;\r\n\t\treturn totalSupply;\r\n\t}\r\n\r\n\tfunction balanceOf(address _owner) public constant returns (uint256 balance) {\r\n\t\treturn balances[_owner];\r\n\t}\r\n\r\n\tfunction transfer(address sender, address _to, uint256 _value) returns (bool success) {\r\n\t\tif(balances[sender] >= _value && _value > 0 && balances[_to] + _value >= balances[_to]) { \r\n\t\t\tbalances[sender] -= _value;\r\n\t\t\tbalances[_to] += _value;\r\n\t\t\tTransfer(sender, _to, _value);\r\n\t\t\treturn true;\r\n\t\t}\r\n\t\telse {\r\n\t\t\treturn false;\r\n\t\t}\r\n\t}\r\n\r\n\tfunction transferFrom(address _from, address _to, uint256 _value, address sender) returns (bool success) {\r\n\t\tif(balances[_from] >= _value && balances[_to] + _value >= balances[_to] && allowed[_from][sender] >= _value) { \r\n\t\t\tbalances[_from] -= _value;\r\n\t\t\tbalances[_to] += _value;\r\n\t\t\tTransfer(_from, _to, _value);\r\n\t\t\treturn true;\r\n\t\t}\r\n\t\telse {\r\n\t\t\treturn false;\r\n\t\t}\r\n\t}\r\n\r\n\tfunction approve(address sender, address _spender, uint256 _value) returns (bool success) {\r\n\t\tallowed[sender][_spender] = _value;\r\n\t\tApproval(sender, _spender, _value);\r\n\t\treturn true;\r\n\t}\r\n\r\n\tfunction allowance(address _owner, address _spender) constant returns (uint256 remaining) {\r\n\t\treturn allowed[_owner][_spender];\r\n\t}\r\n\r\n\tfunction emision(address sender, uint256 _value) returns (bool) {\r\n\t\trequire(sender == owner);\r\n\t\tbalances[owner] += _value;\r\n\t\t_totalSupply += _value;\r\n\t\treturn true;\r\n\t}\r\n\tevent Transfer(address indexed _from, address indexed _to, uint256 _value);\r\n\tevent Approval(address indexed _owner, address indexed _spender, uint256 _value);\r\n\r\n}",
  "sourcePath": "C:\\Users\\Дима\\TokenDistributor\\contracts\\TokenHolder.sol",
  "compiler": {
    "name": "solc",
    "version": "0.4.18+commit.9cf6e910.Emscripten.clang"
  },
  "schemaVersion": "1.0.1",
  "updatedAt": "2017-12-26T14:07:52.065Z"
}